S01E0000446F744D61747269785363726F6C6C696E67546578742E7372656318
S113000045C0000060C000005EC000005CC000008D
S11300105AC0000058C0000056C0000054C0000080
S113002052C0000050C000004EC000004CC0000090
S11300304AC0000048C0000046C0000044C00000A0
S113004042C0000040C000003EC000003CC00000B0
S11300503AC0000038C0000036C0000034C00000C0
S113006032C0000030C000002EC000002CC00000D0
S11300702AC0000028C0000026C0000024C00000E0
S113008022C0000020C000001EC0000011241FBEBA
S1130090CFEFD0E1DEBFCDBF13E0A0E0B1E0E2EBF3
S11300A0F3E000E00BBF02C007900D92A234B10749
S11300B0D9F726E0A2E4B3E001C01D92A230B20752
S11300C0E1F764D174C19CCFAC0180910001681741
S11300D041F0E3E1F1E021E030E09081961311C0BA
S11300E002C020E030E083E1829FF001839FF00DA5
S11300F01124E050FF4FDA0101900D928A95E1F747
S11301000EC02F5F3F4F73962D31310531F783E1D8
S1130110E0E0F1E0DA0101900D928A95E1F7CA017D
S1130120089584EA80937400E4E7F0E080818823F2
S1130130ECF7089584E98093740008958093730024
S113014084E880937400E4E7F0E080818823ECF78E
S113015008951F93CF93DF931092710080E28093F0
S11301607000DFDF80EEEADF81E2E8DFC4E7D0E0A1
S113017014E91883D6DF80EEE1DF80EADFDF18833D
S1130180D0DF80EEDBDF87EED9DF1883CADF80EEB5
S1130190D5DF81E8D3DF1883DF91CF911F910895D4
S11301A00F931F93CF93DF93C0E004E710E0D4E9EB
S11301B0B8DF80EEC3DF8C2FC1DF80E0BFDFF80142
S11301C0D083CE5FC031A1F7DF91CF911F910F9102
S11301D00895CF92DF92EF92FF920F931F93CF93E4
S11301E0DF93CDB7DEB763970FB6F894DEBF0FBECB
S11301F0CDBF6C017C0100E010E045C0F7018081B7
S113020090E0CDD0F70181937F01682FCE01019654
S11302105BDF4A815B81141615061CF5FE013496DA
S11302206091420370914303DB01AA0FBB1FAA5BD9
S1130230BC4F9A01220F331F2D5F3F4F81E090E0A6
S11302408C0F9D1F280F391F819191918D939D9340
S1130250E217F307C9F7460F571F50934303409320
S113026042038091420390914303FC01EE0FFF1F70
S1130270EA5BFC4F118210820196909343038093B2
S113028042030F5F1F4FF60101900020E9F73197F9
S1130290EC19FD090E171F0708F4B0CF8091420333
S11302A09091430347969093450380934403639648
S11302B00FB6F894DEBF0FBECDBFDF91CF911F9173
S11302C00F91FF90EF90DF90CF900895FF920F93DE
S11302D01F93CF93DF9325DF80EE30DF10E0C0E083
S11302E0D0E00F2EFDE5FF2EF02D01E0812F26DF5B
S11302F080914403909145039E01281B390B809102
S1130300420390914303820F931F019612F48F2DA1
S1130310902F880F991FFC01EA5BFC4F80810EDF50
S113032021961E5F103111F705DF809144039091EF
S113033045030197909345038093440318161906C7
S11303404CF0809142039091430347969093450368
S113035080934403DF91CF911F910F91FF900895F3
S113036080912703909128030895181619066CF4B8
S113037020E030E0EFECF7E03197F1F700C0000047
S11303802F5F3F4F82179307A9F70895E2DE08DF36
S113039089E293E01EDF9ADFE3DFE7DFFCCF911110
S11303A0089581568A5108F4805285580895F89426
S10503B0FFCF79
S11303B22D0500FF00FF00FF00FF00FF000000000A
S11303C20000002004000000000000000000000003
S11303D2000000000000210100FD000000000000F8
S11303E2000000000000000000410500BF004800BA
S11303F248004800BF00000000000000420500FF62
S113040200C800C800C80037000000000000004314
S113041205001E002100C000C000C0000000000052
S11304220000440500FF00C000C00021001E0000BF
S11304320000000000450500FF00C800C800C80015
S1130442C800000000000000460500FF0048004804
S113045200480040000000000000004705003F0083
S1130462C000C400C400C70000000000000048052A
S113047200FF00080008000800FF00000000000060
S113048200490500C000C000FF00C000C000000019
S1130492000000004A05004100C000C000C0007F07
S11304A2000000000000004B0500FF0008000800E7
S11304B21400E3000000000000004C0500FF00806F
S11304C2008000800080000000000000004D050054
S11304D2FF00200018002000FF00000000000000C0
S11304E24E0500FF0010000C000200FF0000000097
S11304F20000004F05003F00C000C000C0003F00E4
S1130502000000000000500500FF004400440044C5
S11305120038000000000000005105003F00C00048
S1130522C200C1003F00000000000000520500FFAD
S113053200440044004600B90000000000000053DB
S113054205003100C800C800C800270000000000F0
S1130552000054050040004000FF0040004000003D
S113056200000000005505007F008000800080002C
S11305727F0000000000000056050070000E00819C
S1130582000E007000000000000000570500FF008C
S1130592010006000100FF000000000000005805F1
S11305A200C00033000C003300C000000000000053
S11305B20059050060001800870018006000000060
S11305C2000000005A0500C300C400C800D000E0C7
S11305D20000000000000032004E65726473206166
S11305E2726520746865206E657720636F6F6C2175
S10505F2000003
S9030000FC
