S01E0000446F744D61747269785363726F6C6C696E67546578742E7372656318
S113000045C0000060C000005EC000005CC000008D
S11300105AC0000058C0000056C0000054C0000080
S113002052C0000050C000004EC000004CC0000090
S11300304AC0000048C0000046C0000044C00000A0
S113004042C0000040C000003EC000003CC00000B0
S11300503AC0000038C0000036C0000034C00000C0
S113006032C0000030C000002EC000002CC00000D0
S11300702AC0000028C0000026C0000024C00000E0
S113008022C0000020C000001EC0000011241FBEBA
S1130090CFEFD0E1DEBFCDBF13E0A0E0B1E0EAE3F3
S11300A0F5E000E00BBF02C007900D92AA35B1073E
S11300B0D9F726E0AAE5B3E001C01D92AA31B20740
S11300C0E1F721D238C29CCFAC01809100016817BE
S11300D041F0E3E1F1E021E030E09081961311C0BA
S11300E002C020E030E083E1829FF001839FF00DA5
S11300F01124E050FF4FDA0101900D928A95E1F747
S11301000EC02F5F3F4F73962D31310531F783E1D8
S1130110E0E0F1E0DA0101900D928A95E1F7CA017D
S1130120089584EA80937400E4E7F0E080818823F2
S1130130ECF7089584E98093740008958093730024
S113014084E880937400E4E7F0E080818823ECF78E
S11301500895AF92BF92CF92DF92EF92FF920F93E6
S11301601F93CF93DF9300D000D000D0CDB7DEB77C
S11301701092710080E28093700086E0ECE3F3E07B
S1130180DE01119601900D928A95E1F7CE01019658
S11301907C015E0197E0A90EB11C0F2EF4E7CF2E6F
S11301A0D12CF02D04E9BDDFF7011081F2E0EF0E50
S11301B0F11C1052812FC2DF81E2C0DFF6010083FF
S11301C0B0DF812FBBDF80EAB9DFF6010083A9DF4E
S11301D0812FB4DF87EEB2DFF6010083A2DF812F27
S11301E0ADDF81E8ABDFF6010083EA14FB04D9F646
S11301F026960FB6F894DEBF0FBECDBFDF91CF9128
S11302001F910F91FF90EF90DF90CF90BF90AF9030
S11302100895AF92BF92CF92DF92EF92FF920F9325
S11302201F93CF93DF9300D000D000D0CDB7DEB7BB
S113023086E0ECE3F3E0DE01119601900D928A95DD
S1130240E1F7CE0101967C015E0197E0A90EB11C95
S11302500F2EF4E7CF2ED12CF02D04E914C061DF6A
S1130260F701808180526ADF812F68DF80E066DFDA
S1130270F60100831E5F103191F7F2E0EF0EF11CDE
S1130280AE14BF0411F010E0EACF26960FB6F8942E
S1130290DEBF0FBECDBFDF91CF911F910F91FF90B5
S11302A0EF90DF90CF90BF90AF900895CF92DF9200
S11302B0EF92FF920F931F93CF93DF93CDB7DEB7E7
S11302C063970FB6F894DEBF0FBECDBF6C017C01FF
S11302D000E010E06EC0F701808190E024D1F701C6
S11302E081937F01682FCE010196EEDE89818032F1
S11302F0C9F14A815B81141615061CF5FE0134967A
S113030060915A0370915B03DB01AA0FBB1FA25AD1
S1130310BC4F9A01220F331F2D5F3F4F81E090E0C5
S11303208C0F9D1F280F391F819191918D939D935F
S1130330E217F307C9F7460F571F50935B03409327
S11303405A0380915A0390915B03FC01EE0FFF1F47
S1130350E25AFC4F11821082019690935B038093C2
S11303605A0325C080915A0390915B03FC01EE0F60
S1130370FF1FE25AFC4F11821082FC01EE0FFF1F97
S1130380E05AFC4F11821082FC01EE0FFF1FEE5960
S1130390FC4F11821082FC01EE0FFF1FEC59FC4F41
S11303A011821082049690935B0380935A030F5F2B
S11303B01F4FF60101900020E9F73197EC19FD0970
S11303C00E171F0708F487CF80915A0390915B039F
S11303D0479690935D0380935C0363960FB6F894FD
S11303E0DEBF0FBECDBFDF91CF911F910F91FF9064
S11303F0EF90DF90CF900895BF92CF92DF92EF926B
S1130400FF920F931F93CF93DF9300E010E0E12C52
S1130410F12C0F2EFBE2BF2EF02DCC24C39481DEF1
S11304200130110549F00230110549F0011511059B
S113043041F480EE83DE05C082EE80DE02C088EEE9
S11304407DDEE701D12C8D2D79DE80915C039091C6
S11304505D039E01281B390B80915A0390915B0325
S1130460820F931F019612F48B2D9C2D880F991FD8
S1130470FC01E25AFC4F808161DE2196D394D3942F
S113048080E1D812E0CF88E0E80EF11C53DE0F5F64
S11304901F4F88E1E816F10409F0C1CF80915C0395
S11304A090915D03019790935D0380935C0318160C
S11304B019064CF080915A0390915B0347969093F0
S11304C05D0380935C03DF91CF911F910F91FF90A7
S11304D0EF90DF90CF90BF90089580913A03909170
S11304E03B030895181619066CF420E030E0EFEC95
S11304F0F7E03197F1F700C000002F5F3F4F8217FC
S11305009307A9F7089525DE84DE82E493E0CEDE26
S1130510C4E672DFE2DF9C01C29FC001C39F900D5D
S11305201124E0DFF6CF9111089581568A5108F421
S10D0530805285580895F894FFCF17
S113053A2D0500FF00FF00FF00FF00FF0000000080
S113054A0000002005000000000000000000000078
S113055A000000000000410500BF004800480048B0
S113056A00BF00000000000000420500FF00C800B0
S113057AC800C80037000000000000004305001E40
S113058A002100C000C000C00000000000000044B8
S113059A0500FF00C000C00021001E00000000008A
S11305AA0000450500FF00C800C800C800C80000D4
S11305BA0000000000460500FF004800480048000B
S11305CA40000000000000004705003F00C000C4CE
S11305DA00C400C700000000000000480500FF0036
S11305EA080008000800FF00000000000000490598
S11305FA00C000C000FF00C000C0000000000000EE
S113060A004A05004100C000C000C0007F0000008D
S113061A000000004B0500FF00080008001400E376
S113062A000000000000004C0500FF00800080006C
S113063A800080000000000000004D0500FF00203B
S113064A0018002000FF000000000000004E050012
S113065AFF0010000C000200FF0000000000000070
S113066A4F05003F00C000C000C0003F000000006A
S113067A000000500500FF00440044004400380014
S113068A0000000000005105003F00C000C200C184
S113069A003F00000000000000520500FF00440073
S11306AA44004600B9000000000000005305003170
S11306BA00C800C800C80027000000000000005459
S11306CA050040004000FF00400040000000000018
S11306DA00005505007F008000800080007F000034
S11306EA000000000056050070000E0081000E0094
S11306FA7000000000000000570500FF000100061A
S113070A000100FF00000000000000580500C000BE
S113071A33000C003300C00000000000000059053B
S113072A0060001800870018006000000000000044
S113073A005A0500C300C400C800D000E00000004D
S113074A000000003C050029001E00FF001E0029CD
S113075A000000000000003E0800C80025001E003A
S113076ABE005F001E002900C40001000000020050
S113077A08004E657264732061726520746865208E
S10D078A6E657720636F6F6C00004A
S9030000FC
